{"abi":[{"type":"constructor","inputs":[{"name":"_usdc","type":"address","internalType":"address"}],"stateMutability":"nonpayable"},{"type":"function","name":"TIER1_MULTIPLIER","inputs":[],"outputs":[{"name":"","type":"uint256","internalType":"uint256"}],"stateMutability":"view"},{"type":"function","name":"TIER1_SLOTS","inputs":[],"outputs":[{"name":"","type":"uint256","internalType":"uint256"}],"stateMutability":"view"},{"type":"function","name":"TIER2_MULTIPLIER","inputs":[],"outputs":[{"name":"","type":"uint256","internalType":"uint256"}],"stateMutability":"view"},{"type":"function","name":"TIER2_SLOTS","inputs":[],"outputs":[{"name":"","type":"uint256","internalType":"uint256"}],"stateMutability":"view"},{"type":"function","name":"TIER3_MULTIPLIER","inputs":[],"outputs":[{"name":"","type":"uint256","internalType":"uint256"}],"stateMutability":"view"},{"type":"function","name":"approve","inputs":[{"name":"to","type":"address","internalType":"address"},{"name":"tokenId","type":"uint256","internalType":"uint256"}],"outputs":[],"stateMutability":"nonpayable"},{"type":"function","name":"balanceOf","inputs":[{"name":"owner","type":"address","internalType":"address"}],"outputs":[{"name":"","type":"uint256","internalType":"uint256"}],"stateMutability":"view"},{"type":"function","name":"buySlot","inputs":[{"name":"dropId","type":"uint256","internalType":"uint256"},{"name":"quantity","type":"uint256","internalType":"uint256"}],"outputs":[],"stateMutability":"nonpayable"},{"type":"function","name":"canClaimRefund","inputs":[{"name":"tokenId","type":"uint256","internalType":"uint256"}],"outputs":[{"name":"","type":"bool","internalType":"bool"}],"stateMutability":"view"},{"type":"function","name":"cancelDrop","inputs":[{"name":"dropId","type":"uint256","internalType":"uint256"}],"outputs":[],"stateMutability":"nonpayable"},{"type":"function","name":"claimOrder","inputs":[{"name":"tokenId","type":"uint256","internalType":"uint256"}],"outputs":[],"stateMutability":"nonpayable"},{"type":"function","name":"claimRefund","inputs":[{"name":"tokenId","type":"uint256","internalType":"uint256"}],"outputs":[],"stateMutability":"nonpayable"},{"type":"function","name":"createDrop","inputs":[{"name":"targetAmount","type":"uint256","internalType":"uint256"},{"name":"durationDays","type":"uint256","internalType":"uint256"},{"name":"baseSlotPrice","type":"uint256","internalType":"uint256"},{"name":"totalSlots","type":"uint256","internalType":"uint256"},{"name":"manifestUri","type":"string","internalType":"string"}],"outputs":[{"name":"dropId","type":"uint256","internalType":"uint256"}],"stateMutability":"nonpayable"},{"type":"function","name":"dropTokens","inputs":[{"name":"","type":"uint256","internalType":"uint256"},{"name":"","type":"uint256","internalType":"uint256"}],"outputs":[{"name":"","type":"uint256","internalType":"uint256"}],"stateMutability":"view"},{"type":"function","name":"drops","inputs":[{"name":"","type":"uint256","internalType":"uint256"}],"outputs":[{"name":"targetAmount","type":"uint256","internalType":"uint256"},{"name":"raisedAmount","type":"uint256","internalType":"uint256"},{"name":"deadline","type":"uint256","internalType":"uint256"},{"name":"slotPrice","type":"uint256","internalType":"uint256"},{"name":"totalSlots","type":"uint256","internalType":"uint256"},{"name":"slotsSold","type":"uint256","internalType":"uint256"},{"name":"status","type":"uint8","internalType":"enum FlashCargo.DropStatus"},{"name":"manifestUri","type":"string","internalType":"string"}],"stateMutability":"view"},{"type":"function","name":"getApproved","inputs":[{"name":"tokenId","type":"uint256","internalType":"uint256"}],"outputs":[{"name":"","type":"address","internalType":"address"}],"stateMutability":"view"},{"type":"function","name":"getCurrentSlotPrice","inputs":[{"name":"dropId","type":"uint256","internalType":"uint256"}],"outputs":[{"name":"","type":"uint256","internalType":"uint256"}],"stateMutability":"view"},{"type":"function","name":"getDrop","inputs":[{"name":"dropId","type":"uint256","internalType":"uint256"}],"outputs":[{"name":"targetAmount","type":"uint256","internalType":"uint256"},{"name":"raisedAmount","type":"uint256","internalType":"uint256"},{"name":"deadline","type":"uint256","internalType":"uint256"},{"name":"slotPrice","type":"uint256","internalType":"uint256"},{"name":"totalSlots","type":"uint256","internalType":"uint256"},{"name":"slotsSold","type":"uint256","internalType":"uint256"},{"name":"status","type":"uint8","internalType":"enum FlashCargo.DropStatus"},{"name":"manifestUri","type":"string","internalType":"string"}],"stateMutability":"view"},{"type":"function","name":"getDropTokens","inputs":[{"name":"dropId","type":"uint256","internalType":"uint256"}],"outputs":[{"name":"","type":"uint256[]","internalType":"uint256[]"}],"stateMutability":"view"},{"type":"function","name":"getFundingProgress","inputs":[{"name":"dropId","type":"uint256","internalType":"uint256"}],"outputs":[{"name":"","type":"uint256","internalType":"uint256"}],"stateMutability":"view"},{"type":"function","name":"getSlotPrice","inputs":[{"name":"basePrice","type":"uint256","internalType":"uint256"},{"name":"slotNumber","type":"uint256","internalType":"uint256"}],"outputs":[{"name":"","type":"uint256","internalType":"uint256"}],"stateMutability":"pure"},{"type":"function","name":"isApprovedForAll","inputs":[{"name":"owner","type":"address","internalType":"address"},{"name":"operator","type":"address","internalType":"address"}],"outputs":[{"name":"","type":"bool","internalType":"bool"}],"stateMutability":"view"},{"type":"function","name":"markFulfilled","inputs":[{"name":"dropId","type":"uint256","internalType":"uint256"}],"outputs":[],"stateMutability":"nonpayable"},{"type":"function","name":"name","inputs":[],"outputs":[{"name":"","type":"string","internalType":"string"}],"stateMutability":"view"},{"type":"function","name":"nextDropId","inputs":[],"outputs":[{"name":"","type":"uint256","internalType":"uint256"}],"stateMutability":"view"},{"type":"function","name":"nextTokenId","inputs":[],"outputs":[{"name":"","type":"uint256","internalType":"uint256"}],"stateMutability":"view"},{"type":"function","name":"owner","inputs":[],"outputs":[{"name":"","type":"address","internalType":"address"}],"stateMutability":"view"},{"type":"function","name":"ownerOf","inputs":[{"name":"tokenId","type":"uint256","internalType":"uint256"}],"outputs":[{"name":"","type":"address","internalType":"address"}],"stateMutability":"view"},{"type":"function","name":"releaseFunds","inputs":[{"name":"dropId","type":"uint256","internalType":"uint256"}],"outputs":[],"stateMutability":"nonpayable"},{"type":"function","name":"renounceOwnership","inputs":[],"outputs":[],"stateMutability":"nonpayable"},{"type":"function","name":"safeTransferFrom","inputs":[{"name":"from","type":"address","internalType":"address"},{"name":"to","type":"address","internalType":"address"},{"name":"tokenId","type":"uint256","internalType":"uint256"}],"outputs":[],"stateMutability":"nonpayable"},{"type":"function","name":"safeTransferFrom","inputs":[{"name":"from","type":"address","internalType":"address"},{"name":"to","type":"address","internalType":"address"},{"name":"tokenId","type":"uint256","internalType":"uint256"},{"name":"data","type":"bytes","internalType":"bytes"}],"outputs":[],"stateMutability":"nonpayable"},{"type":"function","name":"setApprovalForAll","inputs":[{"name":"operator","type":"address","internalType":"address"},{"name":"approved","type":"bool","internalType":"bool"}],"outputs":[],"stateMutability":"nonpayable"},{"type":"function","name":"slots","inputs":[{"name":"","type":"uint256","internalType":"uint256"}],"outputs":[{"name":"dropId","type":"uint256","internalType":"uint256"},{"name":"amount","type":"uint256","internalType":"uint256"},{"name":"refunded","type":"bool","internalType":"bool"},{"name":"claimed","type":"bool","internalType":"bool"}],"stateMutability":"view"},{"type":"function","name":"supportsInterface","inputs":[{"name":"interfaceId","type":"bytes4","internalType":"bytes4"}],"outputs":[{"name":"","type":"bool","internalType":"bool"}],"stateMutability":"view"},{"type":"function","name":"symbol","inputs":[],"outputs":[{"name":"","type":"string","internalType":"string"}],"stateMutability":"view"},{"type":"function","name":"tokenURI","inputs":[{"name":"tokenId","type":"uint256","internalType":"uint256"}],"outputs":[{"name":"","type":"string","internalType":"string"}],"stateMutability":"view"},{"type":"function","name":"transferFrom","inputs":[{"name":"from","type":"address","internalType":"address"},{"name":"to","type":"address","internalType":"address"},{"name":"tokenId","type":"uint256","internalType":"uint256"}],"outputs":[],"stateMutability":"nonpayable"},{"type":"function","name":"transferOwnership","inputs":[{"name":"newOwner","type":"address","internalType":"address"}],"outputs":[],"stateMutability":"nonpayable"},{"type":"function","name":"usdc","inputs":[],"outputs":[{"name":"","type":"address","internalType":"contract IERC20"}],"stateMutability":"view"},{"type":"event","name":"Approval","inputs":[{"name":"owner","type":"address","indexed":true,"internalType":"address"},{"name":"approved","type":"address","indexed":true,"internalType":"address"},{"name":"tokenId","type":"uint256","indexed":true,"internalType":"uint256"}],"anonymous":false},{"type":"event","name":"ApprovalForAll","inputs":[{"name":"owner","type":"address","indexed":true,"internalType":"address"},{"name":"operator","type":"address","indexed":true,"internalType":"address"},{"name":"approved","type":"bool","indexed":false,"internalType":"bool"}],"anonymous":false},{"type":"event","name":"DropCancelled","inputs":[{"name":"dropId","type":"uint256","indexed":true,"internalType":"uint256"}],"anonymous":false},{"type":"event","name":"DropCreated","inputs":[{"name":"dropId","type":"uint256","indexed":true,"internalType":"uint256"},{"name":"targetAmount","type":"uint256","indexed":false,"internalType":"uint256"},{"name":"deadline","type":"uint256","indexed":false,"internalType":"uint256"},{"name":"manifestUri","type":"string","indexed":false,"internalType":"string"}],"anonymous":false},{"type":"event","name":"DropFunded","inputs":[{"name":"dropId","type":"uint256","indexed":true,"internalType":"uint256"},{"name":"totalRaised","type":"uint256","indexed":false,"internalType":"uint256"}],"anonymous":false},{"type":"event","name":"FundsReleased","inputs":[{"name":"dropId","type":"uint256","indexed":true,"internalType":"uint256"},{"name":"amount","type":"uint256","indexed":false,"internalType":"uint256"}],"anonymous":false},{"type":"event","name":"OrderClaimed","inputs":[{"name":"tokenId","type":"uint256","indexed":true,"internalType":"uint256"},{"name":"claimer","type":"address","indexed":false,"internalType":"address"}],"anonymous":false},{"type":"event","name":"OwnershipTransferred","inputs":[{"name":"previousOwner","type":"address","indexed":true,"internalType":"address"},{"name":"newOwner","type":"address","indexed":true,"internalType":"address"}],"anonymous":false},{"type":"event","name":"Refunded","inputs":[{"name":"tokenId","type":"uint256","indexed":true,"internalType":"uint256"},{"name":"buyer","type":"address","indexed":false,"internalType":"address"},{"name":"amount","type":"uint256","indexed":false,"internalType":"uint256"}],"anonymous":false},{"type":"event","name":"SlotPurchased","inputs":[{"name":"dropId","type":"uint256","indexed":true,"internalType":"uint256"},{"name":"tokenId","type":"uint256","indexed":true,"internalType":"uint256"},{"name":"buyer","type":"address","indexed":false,"internalType":"address"},{"name":"amount","type":"uint256","indexed":false,"internalType":"uint256"}],"anonymous":false},{"type":"event","name":"Transfer","inputs":[{"name":"from","type":"address","indexed":true,"internalType":"address"},{"name":"to","type":"address","indexed":true,"internalType":"address"},{"name":"tokenId","type":"uint256","indexed":true,"internalType":"uint256"}],"anonymous":false},{"type":"error","name":"ERC721IncorrectOwner","inputs":[{"name":"sender","type":"address","internalType":"address"},{"name":"tokenId","type":"uint256","internalType":"uint256"},{"name":"owner","type":"address","internalType":"address"}]},{"type":"error","name":"ERC721InsufficientApproval","inputs":[{"name":"operator","type":"address","internalType":"address"},{"name":"tokenId","type":"uint256","internalType":"uint256"}]},{"type":"error","name":"ERC721InvalidApprover","inputs":[{"name":"approver","type":"address","internalType":"address"}]},{"type":"error","name":"ERC721InvalidOperator","inputs":[{"name":"operator","type":"address","internalType":"address"}]},{"type":"error","name":"ERC721InvalidOwner","inputs":[{"name":"owner","type":"address","internalType":"address"}]},{"type":"error","name":"ERC721InvalidReceiver","inputs":[{"name":"receiver","type":"address","internalType":"address"}]},{"type":"error","name":"ERC721InvalidSender","inputs":[{"name":"sender","type":"address","internalType":"address"}]},{"type":"error","name":"ERC721NonexistentToken","inputs":[{"name":"tokenId","type":"uint256","internalType":"uint256"}]},{"type":"error","name":"OwnableInvalidOwner","inputs":[{"name":"owner","type":"address","internalType":"address"}]},{"type":"error","name":"OwnableUnauthorizedAccount","inputs":[{"name":"account","type":"address","internalType":"address"}]},{"type":"error","name":"ReentrancyGuardReentrantCall","inputs":[]},{"type":"error","name":"SafeERC20FailedOperation","inputs":[{"name":"token","type":"address","internalType":"address"}]}],"bytecode":{"object":"0x60a060405234801561000f575f5ffd5b5060405161292b38038061292b83398101604081905261002e9161015c565b336040518060400160405280601981526020017f4f75746c69657220436c6f7468696572732052656365697074000000000000008152506040518060400160405280600381526020016227a1a960e91b815250815f908161008f9190610221565b50600161009c8282610221565b5050506001600160a01b0381166100cc57604051631e4fbdf760e01b81525f600482015260240160405180910390fd5b6100d58161010b565b5060017f9b779b17422d0df92223018b32b4d1fa46e071723d6817e2486d003becc55f00556001600160a01b03166080526102db565b600680546001600160a01b038381166001600160a01b0319831681179093556040519116919082907f8be0079c531659141344cd1fd0a4f28419497f9722a3daafe3b4186f6b6457e0905f90a35050565b5f6020828403121561016c575f5ffd5b81516001600160a01b0381168114610182575f5ffd5b9392505050565b634e487b7160e01b5f52604160045260245ffd5b600181811c908216806101b157607f821691505b6020821081036101cf57634e487b7160e01b5f52602260045260245ffd5b50919050565b601f82111561021c57805f5260205f20601f840160051c810160208510156101fa5750805b601f840160051c820191505b81811015610219575f8155600101610206565b50505b505050565b81516001600160401b0381111561023a5761023a610189565b61024e81610248845461019d565b846101d5565b6020601f821160018114610280575f83156102695750848201515b5f19600385901b1c1916600184901b178455610219565b5f84815260208120601f198516915b828110156102af578785015182556020948501946001909201910161028f565b50848210156102cc57868401515f19600387901b60f8161c191681555b50505050600190811b01905550565b6080516126236103085f395f81816103ba01528181610e1501528181610f41015261116601526126235ff3fe608060405234801561000f575f5ffd5b506004361061023f575f3560e01c80636787d44911610135578063c87b56dd116100b4578063ef36f7dc11610079578063ef36f7dc14610553578063f2fde38b1461055b578063f4e4cbcc1461056e578063f8e8690714610581578063ff4c5f6b1461058a575f5ffd5b8063c87b56dd14610508578063ce0ef3101461051b578063ce9c144214610524578063e27106871461052d578063e985e9c514610540575f5ffd5b80638da5cb5b116100fa5780638da5cb5b146104c157806395d89b41146104d2578063a22cb465146104da578063b88d4fde146104ed578063c616e25a14610500575f5ffd5b80636787d4491461048257806370a0823114610495578063715018a6146104a857806375794a3c146104b05780638040210a146104b9575f5ffd5b8063387dd9e9116101c15780634d68282f116101865780634d68282f146104025780635b7baf64146104155780635eb39968146104285780636352211e1461044f578063662fddbc14610462575f5ffd5b8063387dd9e9146103405780633a3f8239146103a25780633e413bee146103b557806342656433146103dc57806342842e0e146103ef575f5ffd5b80630acf428b116102075780630acf428b146102e15780632371d55c146102f457806323b872dd14610307578063245a91a31461031a5780632639f4811461032d575f5ffd5b806301ffc9a71461024357806306fdde031461026b5780630787991514610280578063081812fc146102a1578063095ea7b3146102cc575b5f5ffd5b610256610251366004611f6a565b61059d565b60405190151581526020015b60405180910390f35b6102736105ee565b6040516102629190611fb3565b61029361028e366004611fc5565b61067d565b604051908152602001610262565b6102b46102af366004612058565b610818565b6040516001600160a01b039091168152602001610262565b6102df6102da36600461208a565b61083f565b005b6102936102ef366004612058565b61084e565b6102936103023660046120b2565b610876565b6102df6103153660046120d2565b6108cd565b610256610328366004612058565b61095b565b6102df61033b366004612058565b6109e1565b61037a61034e366004612058565b600a6020525f908152604090208054600182015460029092015490919060ff8082169161010090041684565b6040805194855260208501939093529015159183019190915215156060820152608001610262565b6102df6103b0366004612058565b610a67565b6102b47f000000000000000000000000000000000000000000000000000000000000000081565b6102df6103ea3660046120b2565b610bc5565b6102df6103fd3660046120d2565b610e55565b6102df610410366004612058565b610e74565b6102df610423366004612058565b610ff7565b61043b610436366004612058565b6111e8565b604051610262989796959493929190612120565b6102b461045d366004612058565b6112b8565b610475610470366004612058565b6112c2565b6040516102629190612188565b61043b610490366004612058565b611321565b6102936104a33660046121ca565b611416565b6102df61145b565b61029360085481565b61029360a081565b6006546001600160a01b03166102b4565b61027361146e565b6102df6104e83660046121e3565b61147d565b6102df6104fb366004612230565b611488565b610293608281565b610273610516366004612058565b6114a0565b61029360075481565b61029361012c81565b6102df61053b366004612058565b611510565b61025661054e36600461230d565b611599565b610293606481565b6102df6105693660046121ca565b6115c6565b61029361057c3660046120b2565b611600565b6102936101f481565b610293610598366004612058565b61162b565b5f6001600160e01b031982166380ac58cd60e01b14806105cd57506001600160e01b03198216635b5e139f60e01b145b806105e857506301ffc9a760e01b6001600160e01b03198316145b92915050565b60605f80546105fc9061233e565b80601f01602080910402602001604051908101604052809291908181526020018280546106289061233e565b80156106735780601f1061064a57610100808354040283529160200191610673565b820191905f5260205f20905b81548152906001019060200180831161065657829003601f168201915b5050505050905090565b5f610686611664565b60078054905f6106958361238a565b9091555060408051610100810182528981525f602082015291925081016106bf88620151806123a2565b6106c990426123b9565b81526020018681526020018581526020015f81526020015f60038111156106f2576106f261210c565b815260200184848080601f0160208091040260200160405190810160405280939291908181526020018383808284375f92018290525093909452505083815260096020908152604091829020845181559084015160018083019190915591840151600282015560608401516003808301919091556080850151600483015560a0850151600583015560c08501516006830180549395509093909260ff19169184908111156107a2576107a261210c565b021790555060e082015160078201906107bb9082612410565b5050505f818152600960205260409081902060020154905182917f2fbef7c175772dae4094c1147abc0758a312b53d5415456a2b929e33cf3c09f691610806918b91889088906124cb565b60405180910390a29695505050505050565b5f61082282611691565b505f828152600460205260409020546001600160a01b03166105e8565b61084a8282336116c9565b5050565b5f8181526009602052604081206003810154600582015461086f9190610876565b9392505050565b5f6101f482101561089e57606461088d81856123a2565b6108979190612507565b90506105e8565b6108ac61012c6101f46123b9565b8210156108c057606461088d6082856123a2565b606461088d60a0856123a2565b6001600160a01b0382166108fb57604051633250574960e11b81525f60048201526024015b60405180910390fd5b5f6109078383336116d6565b9050836001600160a01b0316816001600160a01b031614610955576040516364283d7b60e01b81526001600160a01b03808616600483015260248201849052821660448201526064016108f2565b50505050565b5f818152600a60205260408120600281015460ff161561097d57505f92915050565b80545f9081526009602052604090206002600682015460ff1660038111156109a7576109a761210c565b14806109d957505f600682015460ff1660038111156109c8576109c861210c565b1480156109d9575080600201544210155b949350505050565b6109e9611664565b60015f8281526009602052604090206006015460ff166003811115610a1057610a1061210c565b14610a4a5760405162461bcd60e51b815260206004820152600a602482015269139bdd08199d5b99195960b21b60448201526064016108f2565b5f908152600960205260409020600601805460ff19166003179055565b33610a71826112b8565b6001600160a01b031614610ab35760405162461bcd60e51b81526020600482015260096024820152682737ba1037bbb732b960b91b60448201526064016108f2565b5f818152600a602052604090206002810154610100900460ff1615610b0c5760405162461bcd60e51b815260206004820152600f60248201526e105b1c9958591e4818db185a5b5959608a1b60448201526064016108f2565b600381545f9081526009602052604090206006015460ff166003811115610b3557610b3561210c565b14610b725760405162461bcd60e51b815260206004820152600d60248201526c139bdd08199d5b199a5b1b1959609a1b60448201526064016108f2565b60028101805461ff001916610100179055610b8c826117c8565b60405133815282907fc3cd76f50deaae0766fadc6a7ee5ba43e42bcb83ab748d1bc1d1fb8c7373ae879060200160405180910390a25050565b610bcd611800565b5f82815260096020526040812090600682015460ff166003811115610bf457610bf461210c565b14610c115760405162461bcd60e51b81526004016108f290612526565b80600201544210610c565760405162461bcd60e51b815260206004820152600f60248201526e111958591b1a5b99481c185cdcd959608a1b60448201526064016108f2565b8060040154828260050154610c6b91906123b9565b1115610cac5760405162461bcd60e51b815260206004820152601060248201526f4e6f7420656e6f75676820736c6f747360801b60448201526064016108f2565b5f805b83811015610dd4575f818460050154610cc891906123b9565b90505f610cd9856003015483610876565b9050610ce581856123b9565b600880549195505f919082610cf98361238a565b919050559050610d09338261181b565b6040805160808101825289815260208082018581525f83850181815260608501828152878352600a8552868320955186559251600180870191909155905160029095018054935115156101000261ff00199615159690961661ffff1990941693909317949094179091558b8152600b8252838120805493840181558152819020909101839055815133815290810184905282918a917fe6400123d6e01977d19e09900a895436e1b1e1c99a406fc9bcd7ca1c6f708471910160405180910390a3505050600101610caf565b5082826005015f828254610de891906123b9565b9250508190555080826001015f828254610e0291906123b9565b90915550610e3d90506001600160a01b037f00000000000000000000000000000000000000000000000000000000000000001633308461187c565b505061084a60015f5160206125ce5f395f51905f5255565b610e6f83838360405180602001604052805f815250611488565b505050565b610e7c611664565b610e84611800565b5f81815260096020526040812090600682015460ff166003811115610eab57610eab61210c565b14610ec85760405162461bcd60e51b81526004016108f290612526565b805460018201541015610f125760405162461bcd60e51b815260206004820152601260248201527115185c99d95d081b9bdd081c995858da195960721b60448201526064016108f2565b6006818101805460ff191660019081179091558201549054610f68906001600160a01b03166001600160a01b037f00000000000000000000000000000000000000000000000000000000000000001690836118b2565b827f80230996023d69b50793fa73f1919127c9d8e741d3989743c479169f22e7a28882604051610f9a91815260200190565b60405180910390a2827fa5f58017a63a3b5a4a3cebce9cf9f1f552f44e32b527c2f7bc845aa627ec48e182604051610fd491815260200190565b60405180910390a25050610ff460015f5160206125ce5f395f51905f5255565b50565b610fff611800565b33611009826112b8565b6001600160a01b03161461104b5760405162461bcd60e51b81526020600482015260096024820152682737ba1037bbb732b960b91b60448201526064016108f2565b5f818152600a60205260409020600281015460ff16156110a05760405162461bcd60e51b815260206004820152601060248201526f105b1c9958591e481c99599d5b99195960821b60448201526064016108f2565b80545f908152600960205260408120906002600683015460ff1660038111156110cb576110cb61210c565b14806110fd57505f600683015460ff1660038111156110ec576110ec61210c565b1480156110fd575081600201544210155b9050806111435760405162461bcd60e51b8152602060048201526014602482015273526566756e64206e6f7420617661696c61626c6560601b60448201526064016108f2565b60028301805460ff1916600190811790915583015461118e906001600160a01b037f0000000000000000000000000000000000000000000000000000000000000000169033906118b2565b600183015460408051338152602081019290925285917f7ca5472b7ea78c2c0141c5a12ee6d170cf4ce8ed06be3d22c8252ddfc7a6a2c4910160405180910390a2505050610ff460015f5160206125ce5f395f51905f5255565b60096020525f90815260409020805460018201546002830154600384015460048501546005860154600687015460078801805497989697959694959394929360ff90921692916112379061233e565b80601f01602080910402602001604051908101604052809291908181526020018280546112639061233e565b80156112ae5780601f10611285576101008083540402835291602001916112ae565b820191905f5260205f20905b81548152906001019060200180831161129157829003601f168201915b5050505050905088565b5f6105e882611691565b5f818152600b602090815260409182902080548351818402810184019094528084526060939283018282801561131557602002820191905f5260205f20905b815481526020019060010190808311611301575b50505050509050919050565b5f5f5f5f5f5f5f60605f60095f8b81526020019081526020015f209050805f015481600101548260020154836003015484600401548560050154866006015f9054906101000a900460ff168760070180805461137c9061233e565b80601f01602080910402602001604051908101604052809291908181526020018280546113a89061233e565b80156113f35780601f106113ca576101008083540402835291602001916113f3565b820191905f5260205f20905b8154815290600101906020018083116113d657829003601f168201915b505050505090509850985098509850985098509850985050919395975091939597565b5f6001600160a01b038216611440576040516322718ad960e21b81525f60048201526024016108f2565b506001600160a01b03165f9081526003602052604090205490565b611463611664565b61146c5f6118e7565b565b6060600180546105fc9061233e565b61084a338383611938565b6114938484846108cd565b61095533858585856119ff565b60606114ab82611691565b505f6114c160408051602081019091525f815290565b90505f8151116114df5760405180602001604052805f81525061086f565b806114e984611b27565b6040516020016114fa929190612562565b6040516020818303038152906040529392505050565b611518611664565b5f81815260096020526040812090600682015460ff16600381111561153f5761153f61210c565b1461155c5760405162461bcd60e51b81526004016108f290612526565b60068101805460ff1916600217905560405182907f7720203ab651e19ea5b0e9fbba706c7657b66e1ef80a994fa34884ded416ba75905f90a25050565b6001600160a01b039182165f90815260056020908152604080832093909416825291909152205460ff1690565b6115ce611664565b6001600160a01b0381166115f757604051631e4fbdf760e01b81525f60048201526024016108f2565b610ff4816118e7565b600b602052815f5260405f208181548110611619575f80fd5b905f5260205f20015f91509150505481565b5f8181526009602052604081208054820361164857505f92915050565b8054600182015461165a9060646123a2565b61086f9190612507565b6006546001600160a01b0316331461146c5760405163118cdaa760e01b81523360048201526024016108f2565b5f818152600260205260408120546001600160a01b0316806105e857604051637e27328960e01b8152600481018490526024016108f2565b610e6f8383836001611bb7565b5f828152600260205260408120546001600160a01b039081169083161561170257611702818486611cbb565b6001600160a01b0381161561173c5761171d5f855f5f611bb7565b6001600160a01b0381165f90815260036020526040902080545f190190555b6001600160a01b0385161561176a576001600160a01b0385165f908152600360205260409020805460010190555b5f8481526002602052604080822080546001600160a01b0319166001600160a01b0389811691821790925591518793918516917fddf252ad1be2c89b69c2b068fc378daa952ba7f163c4a11628f55a4df523b3ef91a4949350505050565b5f6117d45f835f6116d6565b90506001600160a01b03811661084a57604051637e27328960e01b8152600481018390526024016108f2565b611808611d1f565b60025f5160206125ce5f395f51905f5255565b6001600160a01b03821661184457604051633250574960e11b81525f60048201526024016108f2565b5f61185083835f6116d6565b90506001600160a01b03811615610e6f576040516339e3563760e11b81525f60048201526024016108f2565b61188a848484846001611d4e565b61095557604051635274afe760e01b81526001600160a01b03851660048201526024016108f2565b6118bf8383836001611dbb565b610e6f57604051635274afe760e01b81526001600160a01b03841660048201526024016108f2565b600680546001600160a01b038381166001600160a01b0319831681179093556040519116919082907f8be0079c531659141344cd1fd0a4f28419497f9722a3daafe3b4186f6b6457e0905f90a35050565b6001600160a01b0383166119615760405163a9fbf51f60e01b81525f60048201526024016108f2565b6001600160a01b03821661199357604051630b61174360e31b81526001600160a01b03831660048201526024016108f2565b6001600160a01b038381165f81815260056020908152604080832094871680845294825291829020805460ff191686151590811790915591519182527f17307eab39ab6107e8899845ad3d59bd9653f200f220920489ca2b5937696c31910160405180910390a3505050565b6001600160a01b0383163b15611b2057604051630a85bd0160e11b81526001600160a01b0384169063150b7a0290611a41908890889087908790600401612576565b6020604051808303815f875af1925050508015611a7b575060408051601f3d908101601f19168201909252611a78918101906125b2565b60015b611ae2573d808015611aa8576040519150601f19603f3d011682016040523d82523d5f602084013e611aad565b606091505b5080515f03611ada57604051633250574960e11b81526001600160a01b03851660048201526024016108f2565b805160208201fd5b6001600160e01b03198116630a85bd0160e11b14611b1e57604051633250574960e11b81526001600160a01b03851660048201526024016108f2565b505b5050505050565b60605f611b3383611e1d565b60010190505f8167ffffffffffffffff811115611b5257611b5261221c565b6040519080825280601f01601f191660200182016040528015611b7c576020820181803683370190505b5090508181016020015b5f19016f181899199a1a9b1b9c1cb0b131b232b360811b600a86061a8153600a8504945084611b8657509392505050565b8080611bcb57506001600160a01b03821615155b15611c8c575f611bda84611691565b90506001600160a01b03831615801590611c065750826001600160a01b0316816001600160a01b031614155b8015611c195750611c178184611599565b155b15611c425760405163a9fbf51f60e01b81526001600160a01b03841660048201526024016108f2565b8115611c8a5783856001600160a01b0316826001600160a01b03167f8c5be1e5ebec7d5bd14f71427d1e84f3dd0314c0f7b2291e5b200ac8c7c3b92560405160405180910390a45b505b50505f90815260046020526040902080546001600160a01b0319166001600160a01b0392909216919091179055565b611cc6838383611ef4565b610e6f576001600160a01b038316611cf457604051637e27328960e01b8152600481018290526024016108f2565b60405163177e802f60e01b81526001600160a01b0383166004820152602481018290526044016108f2565b5f5160206125ce5f395f51905f525460020361146c57604051633ee5aeb560e01b815260040160405180910390fd5b6040516323b872dd60e01b5f8181526001600160a01b038781166004528616602452604485905291602083606481808c5af1925060015f51148316611daa578383151615611d9e573d5f823e3d81fd5b5f883b113d1516831692505b604052505f60605295945050505050565b60405163a9059cbb60e01b5f8181526001600160a01b038616600452602485905291602083604481808b5af1925060015f51148316611e11578383151615611e05573d5f823e3d81fd5b5f873b113d1516831692505b60405250949350505050565b5f8072184f03e93ff9f4daa797ed6e38ed64bf6a1f0160401b8310611e5b5772184f03e93ff9f4daa797ed6e38ed64bf6a1f0160401b830492506040015b6d04ee2d6d415b85acef81000000008310611e87576d04ee2d6d415b85acef8100000000830492506020015b662386f26fc100008310611ea557662386f26fc10000830492506010015b6305f5e1008310611ebd576305f5e100830492506008015b6127108310611ed157612710830492506004015b60648310611ee3576064830492506002015b600a83106105e85760010192915050565b5f6001600160a01b038316158015906109d95750826001600160a01b0316846001600160a01b03161480611f2d5750611f2d8484611599565b806109d95750505f908152600460205260409020546001600160a01b03908116911614919050565b6001600160e01b031981168114610ff4575f5ffd5b5f60208284031215611f7a575f5ffd5b813561086f81611f55565b5f81518084528060208401602086015e5f602082860101526020601f19601f83011685010191505092915050565b602081525f61086f6020830184611f85565b5f5f5f5f5f5f60a08789031215611fda575f5ffd5b86359550602087013594506040870135935060608701359250608087013567ffffffffffffffff81111561200c575f5ffd5b8701601f8101891361201c575f5ffd5b803567ffffffffffffffff811115612032575f5ffd5b896020828401011115612043575f5ffd5b60208201935080925050509295509295509295565b5f60208284031215612068575f5ffd5b5035919050565b80356001600160a01b0381168114612085575f5ffd5b919050565b5f5f6040838503121561209b575f5ffd5b6120a48361206f565b946020939093013593505050565b5f5f604083850312156120c3575f5ffd5b50508035926020909101359150565b5f5f5f606084860312156120e4575f5ffd5b6120ed8461206f565b92506120fb6020850161206f565b929592945050506040919091013590565b634e487b7160e01b5f52602160045260245ffd5b8881528760208201528660408201528560608201528460808201528360a08201525f6004841061215e57634e487b7160e01b5f52602160045260245ffd5b8360c083015261010060e083015261217a610100830184611f85565b9a9950505050505050505050565b602080825282518282018190525f918401906040840190835b818110156121bf5783518352602093840193909201916001016121a1565b509095945050505050565b5f602082840312156121da575f5ffd5b61086f8261206f565b5f5f604083850312156121f4575f5ffd5b6121fd8361206f565b915060208301358015158114612211575f5ffd5b809150509250929050565b634e487b7160e01b5f52604160045260245ffd5b5f5f5f5f60808587031215612243575f5ffd5b61224c8561206f565b935061225a6020860161206f565b925060408501359150606085013567ffffffffffffffff81111561227c575f5ffd5b8501601f8101871361228c575f5ffd5b803567ffffffffffffffff8111156122a6576122a661221c565b604051601f8201601f19908116603f0116810167ffffffffffffffff811182821017156122d5576122d561221c565b6040528181528282016020018910156122ec575f5ffd5b816020840160208301375f6020838301015280935050505092959194509250565b5f5f6040838503121561231e575f5ffd5b6123278361206f565b91506123356020840161206f565b90509250929050565b600181811c9082168061235257607f821691505b60208210810361237057634e487b7160e01b5f52602260045260245ffd5b50919050565b634e487b7160e01b5f52601160045260245ffd5b5f6001820161239b5761239b612376565b5060010190565b80820281158282048414176105e8576105e8612376565b808201808211156105e8576105e8612376565b601f821115610e6f57805f5260205f20601f840160051c810160208510156123f15750805b601f840160051c820191505b81811015611b20575f81556001016123fd565b815167ffffffffffffffff81111561242a5761242a61221c565b61243e81612438845461233e565b846123cc565b6020601f821160018114612470575f83156124595750848201515b5f19600385901b1c1916600184901b178455611b20565b5f84815260208120601f198516915b8281101561249f578785015182556020948501946001909201910161247f565b50848210156124bc57868401515f19600387901b60f8161c191681555b50505050600190811b01905550565b84815283602082015260606040820152816060820152818360808301375f818301608090810191909152601f909201601f191601019392505050565b5f8261252157634e487b7160e01b5f52601260045260245ffd5b500490565b6020808252600b908201526a4e6f742066756e64696e6760a81b604082015260600190565b5f81518060208401855e5f93019283525090919050565b5f6109d9612570838661254b565b8461254b565b6001600160a01b03858116825284166020820152604081018390526080606082018190525f906125a890830184611f85565b9695505050505050565b5f602082840312156125c2575f5ffd5b815161086f81611f5556fe9b779b17422d0df92223018b32b4d1fa46e071723d6817e2486d003becc55f00a26469706673582212206cc1db4ad70e31ba4e91d32ab71cb1dd704ea0cbb26e72e02844c210a21d69a364736f6c634300081c0033","linkReferences":{}},"methodIdentifiers":{"TIER1_MULTIPLIER()":"ef36f7dc","TIER1_SLOTS()":"f8e86907","TIER2_MULTIPLIER()":"c616e25a","TIER2_SLOTS()":"ce9c1442","TIER3_MULTIPLIER()":"8040210a","approve(address,uint256)":"095ea7b3","balanceOf(address)":"70a08231","buySlot(uint256,uint256)":"42656433","canClaimRefund(uint256)":"245a91a3","cancelDrop(uint256)":"e2710687","claimOrder(uint256)":"3a3f8239","claimRefund(uint256)":"5b7baf64","createDrop(uint256,uint256,uint256,uint256,string)":"07879915","dropTokens(uint256,uint256)":"f4e4cbcc","drops(uint256)":"5eb39968","getApproved(uint256)":"081812fc","getCurrentSlotPrice(uint256)":"0acf428b","getDrop(uint256)":"6787d449","getDropTokens(uint256)":"662fddbc","getFundingProgress(uint256)":"ff4c5f6b","getSlotPrice(uint256,uint256)":"2371d55c","isApprovedForAll(address,address)":"e985e9c5","markFulfilled(uint256)":"2639f481","name()":"06fdde03","nextDropId()":"ce0ef310","nextTokenId()":"75794a3c","owner()":"8da5cb5b","ownerOf(uint256)":"6352211e","releaseFunds(uint256)":"4d68282f","renounceOwnership()":"715018a6","safeTransferFrom(address,address,uint256)":"42842e0e","safeTransferFrom(address,address,uint256,bytes)":"b88d4fde","setApprovalForAll(address,bool)":"a22cb465","slots(uint256)":"387dd9e9","supportsInterface(bytes4)":"01ffc9a7","symbol()":"95d89b41","tokenURI(uint256)":"c87b56dd","transferFrom(address,address,uint256)":"23b872dd","transferOwnership(address)":"f2fde38b","usdc()":"3e413bee"},"id":46}